{
  "_format": "hh-sol-artifact-1",
  "contractName": "IBBA",
  "sourceName": "contracts/minting.sol",
  "abi": [
    {
      "inputs": [
        {
          "internalType": "string",
          "name": "_baseuri",
          "type": "string"
        },
        {
          "internalType": "address",
          "name": "_houseWallet",
          "type": "address"
        }
      ],
      "stateMutability": "nonpayable",
      "type": "constructor"
    },
    {
      "anonymous": false,
      "inputs": [
        {
          "indexed": true,
          "internalType": "address",
          "name": "owner",
          "type": "address"
        },
        {
          "indexed": true,
          "internalType": "address",
          "name": "approved",
          "type": "address"
        },
        {
          "indexed": true,
          "internalType": "uint256",
          "name": "tokenId",
          "type": "uint256"
        }
      ],
      "name": "Approval",
      "type": "event"
    },
    {
      "anonymous": false,
      "inputs": [
        {
          "indexed": true,
          "internalType": "address",
          "name": "owner",
          "type": "address"
        },
        {
          "indexed": true,
          "internalType": "address",
          "name": "operator",
          "type": "address"
        },
        {
          "indexed": false,
          "internalType": "bool",
          "name": "approved",
          "type": "bool"
        }
      ],
      "name": "ApprovalForAll",
      "type": "event"
    },
    {
      "anonymous": false,
      "inputs": [
        {
          "indexed": true,
          "internalType": "address",
          "name": "previousOwner",
          "type": "address"
        },
        {
          "indexed": true,
          "internalType": "address",
          "name": "newOwner",
          "type": "address"
        }
      ],
      "name": "OwnershipTransferred",
      "type": "event"
    },
    {
      "anonymous": false,
      "inputs": [
        {
          "indexed": false,
          "internalType": "address",
          "name": "account",
          "type": "address"
        }
      ],
      "name": "Paused",
      "type": "event"
    },
    {
      "anonymous": false,
      "inputs": [
        {
          "indexed": true,
          "internalType": "address",
          "name": "from",
          "type": "address"
        },
        {
          "indexed": true,
          "internalType": "address",
          "name": "to",
          "type": "address"
        },
        {
          "indexed": true,
          "internalType": "uint256",
          "name": "tokenId",
          "type": "uint256"
        }
      ],
      "name": "Transfer",
      "type": "event"
    },
    {
      "anonymous": false,
      "inputs": [
        {
          "indexed": false,
          "internalType": "address",
          "name": "account",
          "type": "address"
        }
      ],
      "name": "Unpaused",
      "type": "event"
    },
    {
      "inputs": [
        {
          "internalType": "uint256",
          "name": "numberOfNFTs",
          "type": "uint256"
        }
      ],
      "name": "BatchMinting",
      "outputs": [],
      "stateMutability": "nonpayable",
      "type": "function"
    },
    {
      "inputs": [
        {
          "internalType": "address",
          "name": "to",
          "type": "address"
        },
        {
          "internalType": "uint256",
          "name": "tokenId",
          "type": "uint256"
        }
      ],
      "name": "approve",
      "outputs": [],
      "stateMutability": "nonpayable",
      "type": "function"
    },
    {
      "inputs": [
        {
          "internalType": "address",
          "name": "owner",
          "type": "address"
        }
      ],
      "name": "balanceOf",
      "outputs": [
        {
          "internalType": "uint256",
          "name": "",
          "type": "uint256"
        }
      ],
      "stateMutability": "view",
      "type": "function"
    },
    {
      "inputs": [
        {
          "internalType": "uint256",
          "name": "tokenId",
          "type": "uint256"
        }
      ],
      "name": "burn",
      "outputs": [],
      "stateMutability": "nonpayable",
      "type": "function"
    },
    {
      "inputs": [
        {
          "internalType": "address",
          "name": "newOwner",
          "type": "address"
        }
      ],
      "name": "changeOwnership",
      "outputs": [
        {
          "internalType": "address",
          "name": "",
          "type": "address"
        }
      ],
      "stateMutability": "nonpayable",
      "type": "function"
    },
    {
      "inputs": [
        {
          "internalType": "uint256",
          "name": "tokenId",
          "type": "uint256"
        }
      ],
      "name": "getApproved",
      "outputs": [
        {
          "internalType": "address",
          "name": "",
          "type": "address"
        }
      ],
      "stateMutability": "view",
      "type": "function"
    },
    {
      "inputs": [
        {
          "internalType": "address",
          "name": "owner",
          "type": "address"
        },
        {
          "internalType": "address",
          "name": "operator",
          "type": "address"
        }
      ],
      "name": "isApprovedForAll",
      "outputs": [
        {
          "internalType": "bool",
          "name": "",
          "type": "bool"
        }
      ],
      "stateMutability": "view",
      "type": "function"
    },
    {
      "inputs": [],
      "name": "name",
      "outputs": [
        {
          "internalType": "string",
          "name": "",
          "type": "string"
        }
      ],
      "stateMutability": "view",
      "type": "function"
    },
    {
      "inputs": [],
      "name": "owner",
      "outputs": [
        {
          "internalType": "address",
          "name": "",
          "type": "address"
        }
      ],
      "stateMutability": "view",
      "type": "function"
    },
    {
      "inputs": [
        {
          "internalType": "uint256",
          "name": "tokenId",
          "type": "uint256"
        }
      ],
      "name": "ownerOf",
      "outputs": [
        {
          "internalType": "address",
          "name": "",
          "type": "address"
        }
      ],
      "stateMutability": "view",
      "type": "function"
    },
    {
      "inputs": [],
      "name": "pause",
      "outputs": [],
      "stateMutability": "nonpayable",
      "type": "function"
    },
    {
      "inputs": [],
      "name": "paused",
      "outputs": [
        {
          "internalType": "bool",
          "name": "",
          "type": "bool"
        }
      ],
      "stateMutability": "view",
      "type": "function"
    },
    {
      "inputs": [],
      "name": "renounceOwnership",
      "outputs": [],
      "stateMutability": "nonpayable",
      "type": "function"
    },
    {
      "inputs": [
        {
          "internalType": "address",
          "name": "from",
          "type": "address"
        },
        {
          "internalType": "address",
          "name": "to",
          "type": "address"
        },
        {
          "internalType": "uint256",
          "name": "tokenId",
          "type": "uint256"
        }
      ],
      "name": "safeTransferFrom",
      "outputs": [],
      "stateMutability": "nonpayable",
      "type": "function"
    },
    {
      "inputs": [
        {
          "internalType": "address",
          "name": "from",
          "type": "address"
        },
        {
          "internalType": "address",
          "name": "to",
          "type": "address"
        },
        {
          "internalType": "uint256",
          "name": "tokenId",
          "type": "uint256"
        },
        {
          "internalType": "bytes",
          "name": "data",
          "type": "bytes"
        }
      ],
      "name": "safeTransferFrom",
      "outputs": [],
      "stateMutability": "nonpayable",
      "type": "function"
    },
    {
      "inputs": [
        {
          "internalType": "address",
          "name": "operator",
          "type": "address"
        },
        {
          "internalType": "bool",
          "name": "approved",
          "type": "bool"
        }
      ],
      "name": "setApprovalForAll",
      "outputs": [],
      "stateMutability": "nonpayable",
      "type": "function"
    },
    {
      "inputs": [
        {
          "internalType": "bytes4",
          "name": "interfaceId",
          "type": "bytes4"
        }
      ],
      "name": "supportsInterface",
      "outputs": [
        {
          "internalType": "bool",
          "name": "",
          "type": "bool"
        }
      ],
      "stateMutability": "view",
      "type": "function"
    },
    {
      "inputs": [],
      "name": "symbol",
      "outputs": [
        {
          "internalType": "string",
          "name": "",
          "type": "string"
        }
      ],
      "stateMutability": "view",
      "type": "function"
    },
    {
      "inputs": [
        {
          "internalType": "uint256",
          "name": "tokenId",
          "type": "uint256"
        }
      ],
      "name": "tokenURI",
      "outputs": [
        {
          "internalType": "string",
          "name": "",
          "type": "string"
        }
      ],
      "stateMutability": "view",
      "type": "function"
    },
    {
      "inputs": [
        {
          "internalType": "address",
          "name": "from",
          "type": "address"
        },
        {
          "internalType": "address",
          "name": "to",
          "type": "address"
        },
        {
          "internalType": "uint256",
          "name": "tokenId",
          "type": "uint256"
        }
      ],
      "name": "transferFrom",
      "outputs": [],
      "stateMutability": "nonpayable",
      "type": "function"
    },
    {
      "inputs": [
        {
          "internalType": "address",
          "name": "newOwner",
          "type": "address"
        }
      ],
      "name": "transferOwnership",
      "outputs": [],
      "stateMutability": "nonpayable",
      "type": "function"
    },
    {
      "inputs": [],
      "name": "unpause",
      "outputs": [],
      "stateMutability": "nonpayable",
      "type": "function"
    }
  ],
  "bytecode": "0x60806040523480156200001157600080fd5b5060405162003c0138038062003c01833981810160405281019062000037919062000425565b6040518060400160405280600981526020017f49424241204e46547300000000000000000000000000000000000000000000008152506040518060400160405280600581526020017f494e4654730000000000000000000000000000000000000000000000000000008152508160009081620000b49190620006d6565b508060019081620000c69190620006d6565b5050506000600760006101000a81548160ff02191690831515021790555062000104620000f86200015f60201b60201c565b6200016760201b60201c565b8160099081620001159190620006d6565b5080600a60006101000a81548173ffffffffffffffffffffffffffffffffffffffff021916908373ffffffffffffffffffffffffffffffffffffffff1602179055505050620007bd565b600033905090565b6000600760019054906101000a900473ffffffffffffffffffffffffffffffffffffffff16905081600760016101000a81548173ffffffffffffffffffffffffffffffffffffffff021916908373ffffffffffffffffffffffffffffffffffffffff1602179055508173ffffffffffffffffffffffffffffffffffffffff168173ffffffffffffffffffffffffffffffffffffffff167f8be0079c531659141344cd1fd0a4f28419497f9722a3daafe3b4186f6b6457e060405160405180910390a35050565b6000604051905090565b600080fd5b600080fd5b600080fd5b600080fd5b6000601f19601f8301169050919050565b7f4e487b7100000000000000000000000000000000000000000000000000000000600052604160045260246000fd5b62000296826200024b565b810181811067ffffffffffffffff82111715620002b857620002b76200025c565b5b80604052505050565b6000620002cd6200022d565b9050620002db82826200028b565b919050565b600067ffffffffffffffff821115620002fe57620002fd6200025c565b5b62000309826200024b565b9050602081019050919050565b60005b838110156200033657808201518184015260208101905062000319565b60008484015250505050565b6000620003596200035384620002e0565b620002c1565b90508281526020810184848401111562000378576200037762000246565b5b6200038584828562000316565b509392505050565b600082601f830112620003a557620003a462000241565b5b8151620003b784826020860162000342565b91505092915050565b600073ffffffffffffffffffffffffffffffffffffffff82169050919050565b6000620003ed82620003c0565b9050919050565b620003ff81620003e0565b81146200040b57600080fd5b50565b6000815190506200041f81620003f4565b92915050565b600080604083850312156200043f576200043e62000237565b5b600083015167ffffffffffffffff81111562000460576200045f6200023c565b5b6200046e858286016200038d565b925050602062000481858286016200040e565b9150509250929050565b600081519050919050565b7f4e487b7100000000000000000000000000000000000000000000000000000000600052602260045260246000fd5b60006002820490506001821680620004de57607f821691505b602082108103620004f457620004f362000496565b5b50919050565b60008190508160005260206000209050919050565b60006020601f8301049050919050565b600082821b905092915050565b6000600883026200055e7fffffffffffffffffffffffffffffffffffffffffffffffffffffffffffffffff826200051f565b6200056a86836200051f565b95508019841693508086168417925050509392505050565b6000819050919050565b6000819050919050565b6000620005b7620005b1620005ab8462000582565b6200058c565b62000582565b9050919050565b6000819050919050565b620005d38362000596565b620005eb620005e282620005be565b8484546200052c565b825550505050565b600090565b62000602620005f3565b6200060f818484620005c8565b505050565b5b8181101562000637576200062b600082620005f8565b60018101905062000615565b5050565b601f82111562000686576200065081620004fa565b6200065b846200050f565b810160208510156200066b578190505b620006836200067a856200050f565b83018262000614565b50505b505050565b600082821c905092915050565b6000620006ab600019846008026200068b565b1980831691505092915050565b6000620006c6838362000698565b9150826002028217905092915050565b620006e1826200048b565b67ffffffffffffffff811115620006fd57620006fc6200025c565b5b620007098254620004c5565b620007168282856200063b565b600060209050601f8311600181146200074e576000841562000739578287015190505b620007458582620006b8565b865550620007b5565b601f1984166200075e86620004fa565b60005b82811015620007885784890151825560018201915060208501945060208101905062000761565b86831015620007a85784890151620007a4601f89168262000698565b8355505b6001600288020188555050505b505050505050565b61343480620007cd6000396000f3fe608060405234801561001057600080fd5b50600436106101425760003560e01c806370a08231116100b8578063a22cb4651161007c578063a22cb4651461033d578063b88d4fde14610359578063c87b56dd14610375578063dc426655146103a5578063e985e9c5146103c1578063f2fde38b146103f157610142565b806370a08231146102bd578063715018a6146102ed5780638456cb59146102f75780638da5cb5b1461030157806395d89b411461031f57610142565b80632af4c31e1161010a5780632af4c31e146101fd5780633f4ba83a1461022d57806342842e0e1461023757806342966c68146102535780635c975abb1461026f5780636352211e1461028d57610142565b806301ffc9a71461014757806306fdde0314610177578063081812fc14610195578063095ea7b3146101c557806323b872dd146101e1575b600080fd5b610161600480360381019061015c919061208d565b61040d565b60405161016e91906120d5565b60405180910390f35b61017f6104ef565b60405161018c9190612180565b60405180910390f35b6101af60048036038101906101aa91906121d8565b610581565b6040516101bc9190612246565b60405180910390f35b6101df60048036038101906101da919061228d565b6105c7565b005b6101fb60048036038101906101f691906122cd565b6106de565b005b61021760048036038101906102129190612320565b61073e565b6040516102249190612246565b60405180910390f35b6102356107c8565b005b610251600480360381019061024c91906122cd565b6107da565b005b61026d600480360381019061026891906121d8565b6107fa565b005b610277610856565b60405161028491906120d5565b60405180910390f35b6102a760048036038101906102a291906121d8565b61086d565b6040516102b49190612246565b60405180910390f35b6102d760048036038101906102d29190612320565b6108f3565b6040516102e4919061235c565b60405180910390f35b6102f56109aa565b005b6102ff6109be565b005b6103096109d0565b6040516103169190612246565b60405180910390f35b6103276109fa565b6040516103349190612180565b60405180910390f35b610357600480360381019061035291906123a3565b610a8c565b005b610373600480360381019061036e9190612518565b610aa2565b005b61038f600480360381019061038a91906121d8565b610b04565b60405161039c9190612180565b60405180910390f35b6103bf60048036038101906103ba91906121d8565b610b80565b005b6103db60048036038101906103d6919061259b565b610c01565b6040516103e891906120d5565b60405180910390f35b61040b60048036038101906104069190612320565b610c95565b005b60007f80ac58cd000000000000000000000000000000000000000000000000000000007bffffffffffffffffffffffffffffffffffffffffffffffffffffffff1916827bffffffffffffffffffffffffffffffffffffffffffffffffffffffff191614806104d857507f5b5e139f000000000000000000000000000000000000000000000000000000007bffffffffffffffffffffffffffffffffffffffffffffffffffffffff1916827bffffffffffffffffffffffffffffffffffffffffffffffffffffffff1916145b806104e857506104e782610d18565b5b9050919050565b6060600080546104fe9061260a565b80601f016020809104026020016040519081016040528092919081815260200182805461052a9061260a565b80156105775780601f1061054c57610100808354040283529160200191610577565b820191906000526020600020905b81548152906001019060200180831161055a57829003601f168201915b5050505050905090565b600061058c82610d82565b6004600083815260200190815260200160002060009054906101000a900473ffffffffffffffffffffffffffffffffffffffff169050919050565b60006105d28261086d565b90508073ffffffffffffffffffffffffffffffffffffffff168373ffffffffffffffffffffffffffffffffffffffff1603610642576040517f08c379a0000000000000000000000000000000000000000000000000000000008152600401610639906126ad565b60405180910390fd5b8073ffffffffffffffffffffffffffffffffffffffff16610661610dcd565b73ffffffffffffffffffffffffffffffffffffffff161480610690575061068f8161068a610dcd565b610c01565b5b6106cf576040517f08c379a00000000000000000000000000000000000000000000000000000000081526004016106c69061273f565b60405180910390fd5b6106d98383610dd5565b505050565b6106ef6106e9610dcd565b82610e8e565b61072e576040517f08c379a0000000000000000000000000000000000000000000000000000000008152600401610725906127d1565b60405180910390fd5b610739838383610f23565b505050565b600061074861121c565b600073ffffffffffffffffffffffffffffffffffffffff168273ffffffffffffffffffffffffffffffffffffffff16036107b7576040517f08c379a00000000000000000000000000000000000000000000000000000000081526004016107ae90612863565b60405180910390fd5b6107c08261129a565b819050919050565b6107d061121c565b6107d8611360565b565b6107f583838360405180602001604052806000815250610aa2565b505050565b61080b610805610dcd565b82610e8e565b61084a576040517f08c379a0000000000000000000000000000000000000000000000000000000008152600401610841906127d1565b60405180910390fd5b610853816113c3565b50565b6000600760009054906101000a900460ff16905090565b600080610879836113cf565b9050600073ffffffffffffffffffffffffffffffffffffffff168173ffffffffffffffffffffffffffffffffffffffff16036108ea576040517f08c379a00000000000000000000000000000000000000000000000000000000081526004016108e1906128cf565b60405180910390fd5b80915050919050565b60008073ffffffffffffffffffffffffffffffffffffffff168273ffffffffffffffffffffffffffffffffffffffff1603610963576040517f08c379a000000000000000000000000000000000000000000000000000000000815260040161095a90612961565b60405180910390fd5b600360008373ffffffffffffffffffffffffffffffffffffffff1673ffffffffffffffffffffffffffffffffffffffff168152602001908152602001600020549050919050565b6109b261121c565b6109bc600061129a565b565b6109c661121c565b6109ce61140c565b565b6000600760019054906101000a900473ffffffffffffffffffffffffffffffffffffffff16905090565b606060018054610a099061260a565b80601f0160208091040260200160405190810160405280929190818152602001828054610a359061260a565b8015610a825780601f10610a5757610100808354040283529160200191610a82565b820191906000526020600020905b815481529060010190602001808311610a6557829003601f168201915b5050505050905090565b610a9e610a97610dcd565b838361146f565b5050565b610ab3610aad610dcd565b83610e8e565b610af2576040517f08c379a0000000000000000000000000000000000000000000000000000000008152600401610ae9906127d1565b60405180910390fd5b610afe848484846115db565b50505050565b6060610b0f82611637565b610b4e576040517f08c379a0000000000000000000000000000000000000000000000000000000008152600401610b45906129cd565b60405180910390fd5b6009610b5983611678565b604051602001610b6a929190612b0d565b6040516020818303038152906040529050919050565b610b8861121c565b60005b81811015610bfd57610b9d6008611746565b6000610ba9600861175c565b9050610bd7600a60009054906101000a900473ffffffffffffffffffffffffffffffffffffffff168261176a565b610be981610be483610b04565b611788565b508080610bf590612b6b565b915050610b8b565b5050565b6000600560008473ffffffffffffffffffffffffffffffffffffffff1673ffffffffffffffffffffffffffffffffffffffff16815260200190815260200160002060008373ffffffffffffffffffffffffffffffffffffffff1673ffffffffffffffffffffffffffffffffffffffff16815260200190815260200160002060009054906101000a900460ff16905092915050565b610c9d61121c565b600073ffffffffffffffffffffffffffffffffffffffff168173ffffffffffffffffffffffffffffffffffffffff1603610d0c576040517f08c379a0000000000000000000000000000000000000000000000000000000008152600401610d0390612863565b60405180910390fd5b610d158161129a565b50565b60007f01ffc9a7000000000000000000000000000000000000000000000000000000007bffffffffffffffffffffffffffffffffffffffffffffffffffffffff1916827bffffffffffffffffffffffffffffffffffffffffffffffffffffffff1916149050919050565b610d8b81611637565b610dca576040517f08c379a0000000000000000000000000000000000000000000000000000000008152600401610dc1906128cf565b60405180910390fd5b50565b600033905090565b816004600083815260200190815260200160002060006101000a81548173ffffffffffffffffffffffffffffffffffffffff021916908373ffffffffffffffffffffffffffffffffffffffff160217905550808273ffffffffffffffffffffffffffffffffffffffff16610e488361086d565b73ffffffffffffffffffffffffffffffffffffffff167f8c5be1e5ebec7d5bd14f71427d1e84f3dd0314c0f7b2291e5b200ac8c7c3b92560405160405180910390a45050565b600080610e9a8361086d565b90508073ffffffffffffffffffffffffffffffffffffffff168473ffffffffffffffffffffffffffffffffffffffff161480610edc5750610edb8185610c01565b5b80610f1a57508373ffffffffffffffffffffffffffffffffffffffff16610f0284610581565b73ffffffffffffffffffffffffffffffffffffffff16145b91505092915050565b8273ffffffffffffffffffffffffffffffffffffffff16610f438261086d565b73ffffffffffffffffffffffffffffffffffffffff1614610f99576040517f08c379a0000000000000000000000000000000000000000000000000000000008152600401610f9090612c25565b60405180910390fd5b600073ffffffffffffffffffffffffffffffffffffffff168273ffffffffffffffffffffffffffffffffffffffff1603611008576040517f08c379a0000000000000000000000000000000000000000000000000000000008152600401610fff90612cb7565b60405180910390fd5b61101583838360016117f5565b8273ffffffffffffffffffffffffffffffffffffffff166110358261086d565b73ffffffffffffffffffffffffffffffffffffffff161461108b576040517f08c379a000000000000000000000000000000000000000000000000000000000815260040161108290612c25565b60405180910390fd5b6004600082815260200190815260200160002060006101000a81549073ffffffffffffffffffffffffffffffffffffffff02191690556001600360008573ffffffffffffffffffffffffffffffffffffffff1673ffffffffffffffffffffffffffffffffffffffff168152602001908152602001600020600082825403925050819055506001600360008473ffffffffffffffffffffffffffffffffffffffff1673ffffffffffffffffffffffffffffffffffffffff16815260200190815260200160002060008282540192505081905550816002600083815260200190815260200160002060006101000a81548173ffffffffffffffffffffffffffffffffffffffff021916908373ffffffffffffffffffffffffffffffffffffffff160217905550808273ffffffffffffffffffffffffffffffffffffffff168473ffffffffffffffffffffffffffffffffffffffff167fddf252ad1be2c89b69c2b068fc378daa952ba7f163c4a11628f55a4df523b3ef60405160405180910390a4611217838383600161180f565b505050565b611224610dcd565b73ffffffffffffffffffffffffffffffffffffffff166112426109d0565b73ffffffffffffffffffffffffffffffffffffffff1614611298576040517f08c379a000000000000000000000000000000000000000000000000000000000815260040161128f90612d23565b60405180910390fd5b565b6000600760019054906101000a900473ffffffffffffffffffffffffffffffffffffffff16905081600760016101000a81548173ffffffffffffffffffffffffffffffffffffffff021916908373ffffffffffffffffffffffffffffffffffffffff1602179055508173ffffffffffffffffffffffffffffffffffffffff168173ffffffffffffffffffffffffffffffffffffffff167f8be0079c531659141344cd1fd0a4f28419497f9722a3daafe3b4186f6b6457e060405160405180910390a35050565b611368611815565b6000600760006101000a81548160ff0219169083151502179055507f5db9ee0a495bf2e6ff9c91a7834c1ba4fdd244a5e8aa4e537bd38aeae4b073aa6113ac610dcd565b6040516113b99190612246565b60405180910390a1565b6113cc8161185e565b50565b60006002600083815260200190815260200160002060009054906101000a900473ffffffffffffffffffffffffffffffffffffffff169050919050565b6114146118b1565b6001600760006101000a81548160ff0219169083151502179055507f62e78cea01bee320cd4e420270b5ea74000d11b0c9f74754ebdbfc544b05a258611458610dcd565b6040516114659190612246565b60405180910390a1565b8173ffffffffffffffffffffffffffffffffffffffff168373ffffffffffffffffffffffffffffffffffffffff16036114dd576040517f08c379a00000000000000000000000000000000000000000000000000000000081526004016114d490612d8f565b60405180910390fd5b80600560008573ffffffffffffffffffffffffffffffffffffffff1673ffffffffffffffffffffffffffffffffffffffff16815260200190815260200160002060008473ffffffffffffffffffffffffffffffffffffffff1673ffffffffffffffffffffffffffffffffffffffff16815260200190815260200160002060006101000a81548160ff0219169083151502179055508173ffffffffffffffffffffffffffffffffffffffff168373ffffffffffffffffffffffffffffffffffffffff167f17307eab39ab6107e8899845ad3d59bd9653f200f220920489ca2b5937696c31836040516115ce91906120d5565b60405180910390a3505050565b6115e6848484610f23565b6115f2848484846118fb565b611631576040517f08c379a000000000000000000000000000000000000000000000000000000000815260040161162890612e21565b60405180910390fd5b50505050565b60008073ffffffffffffffffffffffffffffffffffffffff16611659836113cf565b73ffffffffffffffffffffffffffffffffffffffff1614159050919050565b60606000600161168784611a82565b01905060008167ffffffffffffffff8111156116a6576116a56123ed565b5b6040519080825280601f01601f1916602001820160405280156116d85781602001600182028036833780820191505090505b509050600082602001820190505b60011561173b578080600190039150507f3031323334353637383961626364656600000000000000000000000000000000600a86061a8153600a858161172f5761172e612e41565b5b049450600085036116e6575b819350505050919050565b6001816000016000828254019250508190555050565b600081600001549050919050565b611784828260405180602001604052806000815250611bd5565b5050565b61179182611637565b6117d0576040517f08c379a00000000000000000000000000000000000000000000000000000000081526004016117c790612ee2565b60405180910390fd5b806006600084815260200190815260200160002090816117f09190613099565b505050565b6117fd6118b1565b61180984848484611c30565b50505050565b50505050565b61181d610856565b61185c576040517f08c379a0000000000000000000000000000000000000000000000000000000008152600401611853906131b7565b60405180910390fd5b565b61186781611c36565b60006006600083815260200190815260200160002080546118879061260a565b9050146118ae576006600082815260200190815260200160002060006118ad9190611fc4565b5b50565b6118b9610856565b156118f9576040517f08c379a00000000000000000000000000000000000000000000000000000000081526004016118f090613223565b60405180910390fd5b565b600061191c8473ffffffffffffffffffffffffffffffffffffffff16611d84565b15611a75578373ffffffffffffffffffffffffffffffffffffffff1663150b7a02611945610dcd565b8786866040518563ffffffff1660e01b81526004016119679493929190613298565b6020604051808303816000875af19250505080156119a357506040513d601f19601f820116820180604052508101906119a091906132f9565b60015b611a25573d80600081146119d3576040519150601f19603f3d011682016040523d82523d6000602084013e6119d8565b606091505b506000815103611a1d576040517f08c379a0000000000000000000000000000000000000000000000000000000008152600401611a1490612e21565b60405180910390fd5b805181602001fd5b63150b7a0260e01b7bffffffffffffffffffffffffffffffffffffffffffffffffffffffff1916817bffffffffffffffffffffffffffffffffffffffffffffffffffffffff191614915050611a7a565b600190505b949350505050565b600080600090507a184f03e93ff9f4daa797ed6e38ed64bf6a1f0100000000000000008310611ae0577a184f03e93ff9f4daa797ed6e38ed64bf6a1f0100000000000000008381611ad657611ad5612e41565b5b0492506040810190505b6d04ee2d6d415b85acef81000000008310611b1d576d04ee2d6d415b85acef81000000008381611b1357611b12612e41565b5b0492506020810190505b662386f26fc100008310611b4c57662386f26fc100008381611b4257611b41612e41565b5b0492506010810190505b6305f5e1008310611b75576305f5e1008381611b6b57611b6a612e41565b5b0492506008810190505b6127108310611b9a576127108381611b9057611b8f612e41565b5b0492506004810190505b60648310611bbd5760648381611bb357611bb2612e41565b5b0492506002810190505b600a8310611bcc576001810190505b80915050919050565b611bdf8383611da7565b611bec60008484846118fb565b611c2b576040517f08c379a0000000000000000000000000000000000000000000000000000000008152600401611c2290612e21565b60405180910390fd5b505050565b50505050565b6000611c418261086d565b9050611c518160008460016117f5565b611c5a8261086d565b90506004600083815260200190815260200160002060006101000a81549073ffffffffffffffffffffffffffffffffffffffff02191690556001600360008373ffffffffffffffffffffffffffffffffffffffff1673ffffffffffffffffffffffffffffffffffffffff168152602001908152602001600020600082825403925050819055506002600083815260200190815260200160002060006101000a81549073ffffffffffffffffffffffffffffffffffffffff021916905581600073ffffffffffffffffffffffffffffffffffffffff168273ffffffffffffffffffffffffffffffffffffffff167fddf252ad1be2c89b69c2b068fc378daa952ba7f163c4a11628f55a4df523b3ef60405160405180910390a4611d8081600084600161180f565b5050565b6000808273ffffffffffffffffffffffffffffffffffffffff163b119050919050565b600073ffffffffffffffffffffffffffffffffffffffff168273ffffffffffffffffffffffffffffffffffffffff1603611e16576040517f08c379a0000000000000000000000000000000000000000000000000000000008152600401611e0d90613372565b60405180910390fd5b611e1f81611637565b15611e5f576040517f08c379a0000000000000000000000000000000000000000000000000000000008152600401611e56906133de565b60405180910390fd5b611e6d6000838360016117f5565b611e7681611637565b15611eb6576040517f08c379a0000000000000000000000000000000000000000000000000000000008152600401611ead906133de565b60405180910390fd5b6001600360008473ffffffffffffffffffffffffffffffffffffffff1673ffffffffffffffffffffffffffffffffffffffff16815260200190815260200160002060008282540192505081905550816002600083815260200190815260200160002060006101000a81548173ffffffffffffffffffffffffffffffffffffffff021916908373ffffffffffffffffffffffffffffffffffffffff160217905550808273ffffffffffffffffffffffffffffffffffffffff16600073ffffffffffffffffffffffffffffffffffffffff167fddf252ad1be2c89b69c2b068fc378daa952ba7f163c4a11628f55a4df523b3ef60405160405180910390a4611fc060008383600161180f565b5050565b508054611fd09061260a565b6000825580601f10611fe25750612001565b601f0160209004906000526020600020908101906120009190612004565b5b50565b5b8082111561201d576000816000905550600101612005565b5090565b6000604051905090565b600080fd5b600080fd5b60007fffffffff0000000000000000000000000000000000000000000000000000000082169050919050565b61206a81612035565b811461207557600080fd5b50565b60008135905061208781612061565b92915050565b6000602082840312156120a3576120a261202b565b5b60006120b184828501612078565b91505092915050565b60008115159050919050565b6120cf816120ba565b82525050565b60006020820190506120ea60008301846120c6565b92915050565b600081519050919050565b600082825260208201905092915050565b60005b8381101561212a57808201518184015260208101905061210f565b60008484015250505050565b6000601f19601f8301169050919050565b6000612152826120f0565b61215c81856120fb565b935061216c81856020860161210c565b61217581612136565b840191505092915050565b6000602082019050818103600083015261219a8184612147565b905092915050565b6000819050919050565b6121b5816121a2565b81146121c057600080fd5b50565b6000813590506121d2816121ac565b92915050565b6000602082840312156121ee576121ed61202b565b5b60006121fc848285016121c3565b91505092915050565b600073ffffffffffffffffffffffffffffffffffffffff82169050919050565b600061223082612205565b9050919050565b61224081612225565b82525050565b600060208201905061225b6000830184612237565b92915050565b61226a81612225565b811461227557600080fd5b50565b60008135905061228781612261565b92915050565b600080604083850312156122a4576122a361202b565b5b60006122b285828601612278565b92505060206122c3858286016121c3565b9150509250929050565b6000806000606084860312156122e6576122e561202b565b5b60006122f486828701612278565b935050602061230586828701612278565b9250506040612316868287016121c3565b9150509250925092565b6000602082840312156123365761233561202b565b5b600061234484828501612278565b91505092915050565b612356816121a2565b82525050565b6000602082019050612371600083018461234d565b92915050565b612380816120ba565b811461238b57600080fd5b50565b60008135905061239d81612377565b92915050565b600080604083850312156123ba576123b961202b565b5b60006123c885828601612278565b92505060206123d98582860161238e565b9150509250929050565b600080fd5b600080fd5b7f4e487b7100000000000000000000000000000000000000000000000000000000600052604160045260246000fd5b61242582612136565b810181811067ffffffffffffffff82111715612444576124436123ed565b5b80604052505050565b6000612457612021565b9050612463828261241c565b919050565b600067ffffffffffffffff821115612483576124826123ed565b5b61248c82612136565b9050602081019050919050565b82818337600083830152505050565b60006124bb6124b684612468565b61244d565b9050828152602081018484840111156124d7576124d66123e8565b5b6124e2848285612499565b509392505050565b600082601f8301126124ff576124fe6123e3565b5b813561250f8482602086016124a8565b91505092915050565b600080600080608085870312156125325761253161202b565b5b600061254087828801612278565b945050602061255187828801612278565b9350506040612562878288016121c3565b925050606085013567ffffffffffffffff81111561258357612582612030565b5b61258f878288016124ea565b91505092959194509250565b600080604083850312156125b2576125b161202b565b5b60006125c085828601612278565b92505060206125d185828601612278565b9150509250929050565b7f4e487b7100000000000000000000000000000000000000000000000000000000600052602260045260246000fd5b6000600282049050600182168061262257607f821691505b602082108103612635576126346125db565b5b50919050565b7f4552433732313a20617070726f76616c20746f2063757272656e74206f776e6560008201527f7200000000000000000000000000000000000000000000000000000000000000602082015250565b60006126976021836120fb565b91506126a28261263b565b604082019050919050565b600060208201905081810360008301526126c68161268a565b9050919050565b7f4552433732313a20617070726f76652063616c6c6572206973206e6f7420746f60008201527f6b656e206f776e6572206f7220617070726f76656420666f7220616c6c000000602082015250565b6000612729603d836120fb565b9150612734826126cd565b604082019050919050565b600060208201905081810360008301526127588161271c565b9050919050565b7f4552433732313a2063616c6c6572206973206e6f7420746f6b656e206f776e6560008201527f72206f7220617070726f76656400000000000000000000000000000000000000602082015250565b60006127bb602d836120fb565b91506127c68261275f565b604082019050919050565b600060208201905081810360008301526127ea816127ae565b9050919050565b7f4f776e61626c653a206e6577206f776e657220697320746865207a65726f206160008201527f6464726573730000000000000000000000000000000000000000000000000000602082015250565b600061284d6026836120fb565b9150612858826127f1565b604082019050919050565b6000602082019050818103600083015261287c81612840565b9050919050565b7f4552433732313a20696e76616c696420746f6b656e2049440000000000000000600082015250565b60006128b96018836120fb565b91506128c482612883565b602082019050919050565b600060208201905081810360008301526128e8816128ac565b9050919050565b7f4552433732313a2061646472657373207a65726f206973206e6f74206120766160008201527f6c6964206f776e65720000000000000000000000000000000000000000000000602082015250565b600061294b6029836120fb565b9150612956826128ef565b604082019050919050565b6000602082019050818103600083015261297a8161293e565b9050919050565b7f546f6b656e20494420646f6573206e6f74206578697374210000000000000000600082015250565b60006129b76018836120fb565b91506129c282612981565b602082019050919050565b600060208201905081810360008301526129e6816129aa565b9050919050565b600081905092915050565b60008190508160005260206000209050919050565b60008154612a1a8161260a565b612a2481866129ed565b94506001821660008114612a3f5760018114612a5457612a87565b60ff1983168652811515820286019350612a87565b612a5d856129f8565b60005b83811015612a7f57815481890152600182019150602081019050612a60565b838801955050505b50505092915050565b6000612a9b826120f0565b612aa581856129ed565b9350612ab581856020860161210c565b80840191505092915050565b7f2e6a736f6e3f616c743d6d656469610000000000000000000000000000000000600082015250565b6000612af7600f836129ed565b9150612b0282612ac1565b600f82019050919050565b6000612b198285612a0d565b9150612b258284612a90565b9150612b3082612aea565b91508190509392505050565b7f4e487b7100000000000000000000000000000000000000000000000000000000600052601160045260246000fd5b6000612b76826121a2565b91507fffffffffffffffffffffffffffffffffffffffffffffffffffffffffffffffff8203612ba857612ba7612b3c565b5b600182019050919050565b7f4552433732313a207472616e736665722066726f6d20696e636f72726563742060008201527f6f776e6572000000000000000000000000000000000000000000000000000000602082015250565b6000612c0f6025836120fb565b9150612c1a82612bb3565b604082019050919050565b60006020820190508181036000830152612c3e81612c02565b9050919050565b7f4552433732313a207472616e7366657220746f20746865207a65726f2061646460008201527f7265737300000000000000000000000000000000000000000000000000000000602082015250565b6000612ca16024836120fb565b9150612cac82612c45565b604082019050919050565b60006020820190508181036000830152612cd081612c94565b9050919050565b7f4f776e61626c653a2063616c6c6572206973206e6f7420746865206f776e6572600082015250565b6000612d0d6020836120fb565b9150612d1882612cd7565b602082019050919050565b60006020820190508181036000830152612d3c81612d00565b9050919050565b7f4552433732313a20617070726f766520746f2063616c6c657200000000000000600082015250565b6000612d796019836120fb565b9150612d8482612d43565b602082019050919050565b60006020820190508181036000830152612da881612d6c565b9050919050565b7f4552433732313a207472616e7366657220746f206e6f6e20455243373231526560008201527f63656976657220696d706c656d656e7465720000000000000000000000000000602082015250565b6000612e0b6032836120fb565b9150612e1682612daf565b604082019050919050565b60006020820190508181036000830152612e3a81612dfe565b9050919050565b7f4e487b7100000000000000000000000000000000000000000000000000000000600052601260045260246000fd5b7f45524337323155524953746f726167653a2055524920736574206f66206e6f6e60008201527f6578697374656e7420746f6b656e000000000000000000000000000000000000602082015250565b6000612ecc602e836120fb565b9150612ed782612e70565b604082019050919050565b60006020820190508181036000830152612efb81612ebf565b9050919050565b60006020601f8301049050919050565b600082821b905092915050565b600060088302612f4f7fffffffffffffffffffffffffffffffffffffffffffffffffffffffffffffffff82612f12565b612f598683612f12565b95508019841693508086168417925050509392505050565b6000819050919050565b6000612f96612f91612f8c846121a2565b612f71565b6121a2565b9050919050565b6000819050919050565b612fb083612f7b565b612fc4612fbc82612f9d565b848454612f1f565b825550505050565b600090565b612fd9612fcc565b612fe4818484612fa7565b505050565b5b8181101561300857612ffd600082612fd1565b600181019050612fea565b5050565b601f82111561304d5761301e816129f8565b61302784612f02565b81016020851015613036578190505b61304a61304285612f02565b830182612fe9565b50505b505050565b600082821c905092915050565b600061307060001984600802613052565b1980831691505092915050565b6000613089838361305f565b9150826002028217905092915050565b6130a2826120f0565b67ffffffffffffffff8111156130bb576130ba6123ed565b5b6130c5825461260a565b6130d082828561300c565b600060209050601f83116001811461310357600084156130f1578287015190505b6130fb858261307d565b865550613163565b601f198416613111866129f8565b60005b8281101561313957848901518255600182019150602085019450602081019050613114565b868310156131565784890151613152601f89168261305f565b8355505b6001600288020188555050505b505050505050565b7f5061757361626c653a206e6f7420706175736564000000000000000000000000600082015250565b60006131a16014836120fb565b91506131ac8261316b565b602082019050919050565b600060208201905081810360008301526131d081613194565b9050919050565b7f5061757361626c653a2070617573656400000000000000000000000000000000600082015250565b600061320d6010836120fb565b9150613218826131d7565b602082019050919050565b6000602082019050818103600083015261323c81613200565b9050919050565b600081519050919050565b600082825260208201905092915050565b600061326a82613243565b613274818561324e565b935061328481856020860161210c565b61328d81612136565b840191505092915050565b60006080820190506132ad6000830187612237565b6132ba6020830186612237565b6132c7604083018561234d565b81810360608301526132d9818461325f565b905095945050505050565b6000815190506132f381612061565b92915050565b60006020828403121561330f5761330e61202b565b5b600061331d848285016132e4565b91505092915050565b7f4552433732313a206d696e7420746f20746865207a65726f2061646472657373600082015250565b600061335c6020836120fb565b915061336782613326565b602082019050919050565b6000602082019050818103600083015261338b8161334f565b9050919050565b7f4552433732313a20746f6b656e20616c7265616479206d696e74656400000000600082015250565b60006133c8601c836120fb565b91506133d382613392565b602082019050919050565b600060208201905081810360008301526133f7816133bb565b905091905056fea264697066735822122061be7c059f07a77526aa75e2f77b9d180153944e81b5334f4bae99880436428c64736f6c63430008120033",
  "linkReferences": {},
  "deployedLinkReferences": {}
}